{
  "_format": "hh3-artifact-1",
  "contractName": "ChainWillFactory",
  "sourceName": "contracts/ChainWillFactory.sol",
  "abi": [
    {
      "inputs": [],
      "name": "NoWillFound",
      "type": "error"
    },
    {
      "inputs": [
        {
          "internalType": "address",
          "name": "existing",
          "type": "address"
        }
      ],
      "name": "WillAlreadyExists",
      "type": "error"
    },
    {
      "anonymous": false,
      "inputs": [
        {
          "indexed": true,
          "internalType": "address",
          "name": "owner",
          "type": "address"
        },
        {
          "indexed": true,
          "internalType": "address",
          "name": "will",
          "type": "address"
        },
        {
          "indexed": false,
          "internalType": "uint256",
          "name": "threshold",
          "type": "uint256"
        }
      ],
      "name": "WillCreated",
      "type": "event"
    },
    {
      "inputs": [
        {
          "internalType": "uint256",
          "name": "",
          "type": "uint256"
        }
      ],
      "name": "allWills",
      "outputs": [
        {
          "internalType": "address",
          "name": "",
          "type": "address"
        }
      ],
      "stateMutability": "view",
      "type": "function"
    },
    {
      "inputs": [
        {
          "internalType": "uint256",
          "name": "_inactivityThreshold",
          "type": "uint256"
        }
      ],
      "name": "createWill",
      "outputs": [
        {
          "internalType": "address",
          "name": "will",
          "type": "address"
        }
      ],
      "stateMutability": "nonpayable",
      "type": "function"
    },
    {
      "inputs": [],
      "name": "deleteWill",
      "outputs": [],
      "stateMutability": "nonpayable",
      "type": "function"
    },
    {
      "inputs": [
        {
          "internalType": "address",
          "name": "_owner",
          "type": "address"
        }
      ],
      "name": "getWill",
      "outputs": [
        {
          "internalType": "address",
          "name": "",
          "type": "address"
        }
      ],
      "stateMutability": "view",
      "type": "function"
    },
    {
      "inputs": [
        {
          "internalType": "address",
          "name": "_owner",
          "type": "address"
        }
      ],
      "name": "hasWill",
      "outputs": [
        {
          "internalType": "bool",
          "name": "",
          "type": "bool"
        }
      ],
      "stateMutability": "view",
      "type": "function"
    },
    {
      "inputs": [],
      "name": "totalWills",
      "outputs": [
        {
          "internalType": "uint256",
          "name": "",
          "type": "uint256"
        }
      ],
      "stateMutability": "view",
      "type": "function"
    },
    {
      "inputs": [
        {
          "internalType": "address",
          "name": "",
          "type": "address"
        }
      ],
      "name": "wills",
      "outputs": [
        {
          "internalType": "address",
          "name": "",
          "type": "address"
        }
      ],
      "stateMutability": "view",
      "type": "function"
    }
  ],
  "bytecode": "0x60808060405234601557612246908161001a8239f35b5f80fdfe60806040526004361015610011575f80fd5b5f5f3560e01c8063210879f4146102f75780632c0f864a146102da578063549cc7b814610295578063a4cb92fa14610252578063ac4e6b0214610252578063ba5a24ed146102105763e2c5db5614610067575f80fd5b346101e25760203660031901126101e25760043590335f525f60205260018060a01b0360405f2054166101e657604051611e938082019082821067ffffffffffffffff8311176101c357602091839161037e83398581520301905ff080156101d7576001600160a01b031690813b156101e25760405163f2fde38b60e01b81523360048201525f8160248183875af180156101d7576101a8575b5033815260208190526040812080546001600160a01b0319168317905560015490680100000000000000008210156101945750602092610148826001859401600155610351565b81549060031b9084821b9160018060a01b03901b19161790556040519081527f1a65dda79fbe6a14f34584eb235a91d0dfc17413d5536edc87504264784a29c0843392a3604051908152f35b634e487b7160e01b81526041600452602490fd5b905067ffffffffffffffff81116101c3576040525f5f610101565b634e487b7160e01b5f52604160045260245ffd5b6040513d5f823e3d90fd5b5f80fd5b335f9081526020819052604081205463d3e6239d60e01b82526001600160a01b0316600452602490fd5b346101e25760203660031901126101e2576004356001548110156101e257610239602091610351565b905460405160039290921b1c6001600160a01b03168152f35b346101e25760203660031901126101e2576004356001600160a01b038116908190036101e2575f525f602052602060018060a01b0360405f205416604051908152f35b346101e25760203660031901126101e2576004356001600160a01b038116908190036101e2575f525f602052602060018060a01b0360405f2054161515604051908152f35b346101e2575f3660031901126101e2576020600154604051908152f35b346101e2575f3660031901126101e257335f908152602081905260409020546001600160a01b03161561034257335f90815260208190526040902080546001600160a01b0319169055005b636ad63f7960e01b5f5260045ffd5b6001548110156103695760015f5260205f2001905f90565b634e487b7160e01b5f52603260045260245ffdfe60803461010c57601f611e9338819003918201601f19168301916001600160401b038311848410176101105780849260209460405283398101031261010c575160017f9b779b17422d0df92223018b32b4d1fa46e071723d6817e2486d003becc55f005533156100f9575f8054610100600160a81b0319811633600881811b610100600160a81b03169290921784559291901c6001600160a01b0316907f8be0079c531659141344cd1fd0a4f28419497f9722a3daafe3b4186f6b6457e09080a362278d0081106100e05760025542600155604051611d6e90816101258239f35b631db0a39560e01b5f5260045262278d0060245260445ffd5b631e4fbdf760e01b5f525f60045260245ffd5b5f80fd5b634e487b7160e01b5f52604160045260245ffdfe608080604052600436101561001c575b50361561001a575f80fd5b005b5f3560e01c908163150b7a021461144057508063183ff085146113e45780631af03203146113255780632348dd181461130a5780633b2786cb146112de5780633f4ba83a1461128a5780634585e33b1461115657806357583daf146110315780635c657d9d14610e685780635c975abb14610e475780636e04ff0d14610d97578063715018a614610d3c57806379d2055214610d1a5780638453601714610c805780638456cb5914610c2957806384d58a4514610b905780638da5cb5b14610b655780638fc4c35e14610adc578063913b722c14610a035780639ec86276146109e6578063b630e27a146109c4578063bbe64ab5146107b8578063bd11c4c01461079b578063cf3abaf1146106c2578063d3a057c81461069d578063d40d17bc1461062a578063d5a4f9ed14610589578063db78dabd1461056c578063e1f1c4a714610550578063eeb0cf031461040d578063efeb5e58146103e6578063f2fde38b1461034d578063f7087e0d14610301578063fa34a842146102df578063fa3908b1146102875763fb9caaaf146101b4575f61000f565b34610283575f366003190112610283576040515f6004546101d4816115a8565b808452906001811690811561025f5750600114610214575b610210836101fc818503826115e0565b60405191829160208352602083019061151c565b0390f35b91905060045f525f516020611cf95f395f51905f52915f905b808210610245575090915081016020016101fc6101ec565b91926001816020925483858801015201910190929161022d565b60ff191660208086019190915291151560051b840190910191506101fc90506101ec565b5f80fd5b3461028357602036600319011261028357600435600854811015610283576102b060609161158c565b5080546001820154600290920154604080516001600160a01b0393841681526020810194909452911690820152f35b34610283575f3660031901126102835760206102f9611861565b604051908152f35b34610283576020366003190112610283576004356007548110156102835761032890611570565b508054600190910154604080516001600160a01b039093168352602083019190915290f35b3461028357602036600319011261028357610366611493565b61036e61188b565b6001600160a01b0381169081156103d3575f8054610100600160a81b03198116600893841b610100600160a81b031617825590911c6001600160a01b0316907f8be0079c531659141344cd1fd0a4f28419497f9722a3daafe3b4186f6b6457e09080a3005b631e4fbdf760e01b5f525f60045260245ffd5b34610283576020366003190112610283576004356006548110156102835761032890611540565b34610283576020366003190112610283576004356001600160401b0381116102835736602382011215610283578060040135906001600160401b0382116102835736602460608402830101116102835761046561188b565b60ff60035416610541576104776118b4565b61047f6117f7565b5f5b8281101561001a5760608102820190600854600160401b81101561052d578060016104af920160085561158c565b61051a576001926002906104f4906064906001600160a01b036104d460248301611649565b86546001600160a01b031916911617855560448101358786015501611649565b910190838060a01b03166bffffffffffffffffffffffff60a01b82541617905501610481565b634e487b7160e01b5f525f60045260245ffd5b634e487b7160e01b5f52604160045260245ffd5b630dc1019760e01b5f5260045ffd5b34610283575f3660031901126102835760206040516127108152f35b34610283575f366003190112610283576020600154604051908152f35b34610283575f366003190112610283576105a161188b565b6105a96118ce565b6105b16118e9565b60ff60035416610541576105c3611670565b6105cb61174b565b6105d36117f7565b61ff00196003541660035542600155600254604051905f825260208201527fac95b217141d8564a02c1fd38364dfb57f347cc8b5e525495f37a779eb31e69e60403392a260015f516020611d195f395f51905f5255005b3461028357602036600319011261028357610643611493565b61064b61188b565b6003805462010000600160b01b031916601083901b62010000600160b01b03161790556001600160a01b03167f9d90a82ec1d038d4e13317a0eb136f9c65b7ed42156fc204ec4b7c4731e739505f80a2005b34610283575f36600319011261028357602060ff60035460081c166040519015158152f35b34610283575f366003190112610283576007546106de81611622565b906106ec60405192836115e0565b80825260208201908160075f527fa66cc928b5edb82af9bd49922954155ab7b0942694bea4ce44661d9a8736c6885f915b83831061077d578486604051918291602083019060208452518091526040830191905f5b81811061074f575050500390f35b825180516001600160a01b031685526020908101518186015286955060409094019390920191600101610741565b6002602060019261078d856117c0565b81520192019201919061071d565b34610283575f36600319011261028357602060405162278d008152f35b34610283576040366003190112610283576004356001600160401b038111610283576107e89036906004016114bf565b60243591821515809303610283576107fe61188b565b60ff60035416610541576108106118b4565b6001600160401b03821161052d576108296004546115a8565b601f811161095c575b505f92601f83116001146108ce57827f025793d5190e9b793000305339561d009661710eb564995a313aa69b8b55f62693945f916108c3575b508460011b905f198660031b1c1916176004555b60ff196005541660ff82161760055583604051926040845281604085015260608401375f6060858401015260208201526060813394601f80199101168101030190a2005b90508201358561086b565b601f1983169360045f525f516020611cf95f395f51905f52905f5b8681106109445750847f025793d5190e9b793000305339561d009661710eb564995a313aa69b8b55f62695961061092b575b5050600184811b0160045561087f565b8301355f19600387901b60f8161c19169055848061091b565b909160206001819285880135815501930191016108e9565b60045f52601f830160051c5f516020611cf95f395f51905f520190602084106109af575b601f0160051c5f516020611cf95f395f51905f5201905b8181106109a45750610832565b5f8155600101610997565b5f516020611cf95f395f51905f529150610980565b34610283575f36600319011261028357602060ff600554166040519015158152f35b34610283575f366003190112610283576020600254604051908152f35b34610283575f36600319011261028357600654610a1f81611622565b90610a2d60405192836115e0565b80825260208201908160065f527ff652222313e28459528d920b65115c16c04f3efc82aaedc97be59f3f377c0d3f5f915b838310610abe578486604051918291602083019060208452518091526040830191905f5b818110610a90575050500390f35b825180516001600160a01b031685526020908101518186015286955060409094019390920191600101610a82565b60026020600192610ace856117c0565b815201920192019190610a5e565b34610283575f36600319011261028357610100600154600254610aff8183611601565b428111610b5457505f915b6003549260ff5f54169247926006549460ff60405197818160081c16151589521615156020880152151560408701526060860152608085015260a084015260c083015260e0820152f35b610b5f9042906117b3565b91610b0a565b34610283575f366003190112610283575f5460405160089190911c6001600160a01b03168152602090f35b34610283576020366003190112610283576004356001600160401b03811161028357610bc09036906004016114ec565b610bc861188b565b60ff6003541661054157610bda6118b4565b610be261174b565b5f5b818110610bed57005b610bf8818385611639565b90600754600160401b81101561052d57600192610c1d8285610c239401600755611570565b906116d8565b01610be4565b34610283575f36600319011261028357610c4161188b565b610c496118b4565b600160ff195f5416175f557f62e78cea01bee320cd4e420270b5ea74000d11b0c9f74754ebdbfc544b05a2586020604051338152a1005b34610283575f36600319011261028357610c9861188b565b610ca06118ce565b610ca86118e9565b5f8080804760018060a01b03825460081c165af1610cc461170d565b5015610cdd5760015f516020611d195f395f51905f5255005b60405162461bcd60e51b8152602060048201526015602482015274115512081dda5d1a191c985dd85b0819985a5b1959605a1b6044820152606490fd5b34610283575f36600319011261028357602060ff600354166040519015158152f35b34610283575f36600319011261028357610d5461188b565b5f8054610100600160a81b03198116825560081c6001600160a01b03167f8be0079c531659141344cd1fd0a4f28419497f9722a3daafe3b4186f6b6457e08280a3005b34610283576020366003190112610283576004356001600160401b03811161028357610dc79036906004016114bf565b505060035460ff8160081c169081610e3b575b5080610e2f575b80610e17575b60405190610df66020836115e0565b5f82526102106040519283921515835260406020840152604083019061151c565b50610e2760015460025490611601565b421015610de7565b5060ff5f541615610de1565b60ff9150161581610dda565b34610283575f36600319011261028357602060ff5f54166040519015158152f35b34610283576040366003190112610283576004356001600160401b03811161028357610e989036906004016114ec565b9060243590610ea561188b565b60ff6003541661054157610eb76118b4565b62278d008210611017578215801561100d575b610ffe575f5f5b848110610f8857506127108103610f765750610eeb611670565b5f5b838110610f40575050806002554260015561010061ff0019600354161760035560405191825260208201527fac95b217141d8564a02c1fd38364dfb57f347cc8b5e525495f37a779eb31e69e60403392a2005b610f4b818584611639565b90600654600160401b81101561052d57600192610c1d8285610f709401600655611540565b01610eed565b630cc329fd60e01b5f5260045260245ffd5b906001600160a01b03610fa4610f9f848887611639565b611649565b1615610fef576020610fb7838786611639565b013515610fe057610fd96001916020610fd1858988611639565b013590611601565b9101610ed1565b63ba0d87b560e01b5f5260045ffd5b63f8cc3de360e01b5f5260045ffd5b636849c3cf60e01b5f5260045ffd5b5060058311610eca565b50631db0a39560e01b5f5260045262278d0060245260445ffd5b34610283575f3660031901126102835760085461104d81611622565b9061105b60405192836115e0565b80825260208201809160085f527ff3f7a9fe364faab93b216da50a3214154f22a0a2b415b23a84c8169e8b636ee3915f905b8282106110ff578486604051918291602083019060208452518091526040830191905f5b8181106110bf575050500390f35b825180516001600160a01b0390811686526020828101518188015260409283015190911691860191909152869550606090940193909201916001016110b1565b604051606081018181106001600160401b0382111761052d57600192600392602092604052848060a01b0388541681528488015483820152848060a01b03600289015416604082015281520194019101909261108d565b34610283576020366003190112610283576004356001600160401b038111610283576111869036906004016114bf565b50506111906118e9565b6111986118b4565b60035460ff8160081c161561127b5760ff811661054157601081901c6001600160a01b03168015159081611270575b5061125d576111db60015460025490611601565b421061124e5760019060ff19161760035560018060a01b035f5460081c167fac8ae454ab5edd07d536a5c6584f39f829039f54889168e45278e74b7d062a3f6020604051428152a261122b6119a2565b611233611a83565b61123b611bf0565b60015f516020611d195f395f51905f5255005b631b7c609b60e11b5f5260045ffd5b633a60346160e11b5f523360045260245ffd5b9050331415826111c7565b63d311bc3960e01b5f5260045ffd5b34610283575f366003190112610283576112a261188b565b6112aa6118ce565b60ff195f54165f557f5db9ee0a495bf2e6ff9c91a7834c1ba4fdd244a5e8aa4e537bd38aeae4b073aa6020604051338152a1005b34610283575f3660031901126102835760035460405160109190911c6001600160a01b03168152602090f35b34610283575f36600319011261028357602060405160058152f35b346102835760203660031901126102835761133e611493565b61134661188b565b61134e6118ce565b6113566118e9565b6040516370a0823160e01b8152306004820152906001600160a01b0316602082602481845afa9081156113d9575f916113a3575b5f5461123b935060081c6001600160a01b031690611921565b90506020823d6020116113d1575b816113be602093836115e0565b810103126102835761123b91519061138a565b3d91506113b1565b6040513d5f823e3d90fd5b34610283575f366003190112610283576113fc61188b565b60ff600354166105415761140e6118b4565b426001556040514281527fdddb6e14f7f2101397a6526aab95e964de7f1f44ed06aa47a1c9a0e6b992445660203392a2005b3461028357608036600319011261028357611459611493565b506114626114a9565b50606435906001600160401b0382116102835761148560209236906004016114bf565b5050630a85bd0160e11b8152f35b600435906001600160a01b038216820361028357565b602435906001600160a01b038216820361028357565b9181601f84011215610283578235916001600160401b038311610283576020838186019501011161028357565b9181601f84011215610283578235916001600160401b038311610283576020808501948460061b01011161028357565b805180835260209291819084018484015e5f828201840152601f01601f1916010190565b60065481101561155c5760065f5260205f209060011b01905f90565b634e487b7160e01b5f52603260045260245ffd5b60075481101561155c5760075f5260205f209060011b01905f90565b60085481101561155c5760085f52600360205f20910201905f90565b90600182811c921680156115d6575b60208310146115c257565b634e487b7160e01b5f52602260045260245ffd5b91607f16916115b7565b90601f801991011681019081106001600160401b0382111761052d57604052565b9190820180921161160e57565b634e487b7160e01b5f52601160045260245ffd5b6001600160401b03811161052d5760051b60200190565b919081101561155c5760061b0190565b356001600160a01b03811681036102835790565b8181029291811591840414171561160e57565b6006545f6006558061167f5750565b6001600160ff1b038116810361160e5760065f5260011b7ff652222313e28459528d920b65115c16c04f3efc82aaedc97be59f3f377c0d3f908101905b8181106116c7575050565b5f80825560018201556002016116bc565b919061051a576001906020906001600160a01b036116f582611649565b85546001600160a01b03191691161784550135910155565b3d15611746573d906001600160401b03821161052d576040519161173b601f8201601f1916602001846115e0565b82523d5f602084013e565b606090565b6007545f6007558061175a5750565b6001600160ff1b038116810361160e5760075f5260011b7fa66cc928b5edb82af9bd49922954155ab7b0942694bea4ce44661d9a8736c688908101905b8181106117a2575050565b5f8082556001820155600201611797565b9190820391821161160e57565b90604051604081018181106001600160401b0382111761052d5760405282546001600160a01b031681526001909201546020830152565b6008545f600855806118065750565b8060030290600382040361160e5760085f527ff3f7a9fe364faab93b216da50a3214154f22a0a2b415b23a84c8169e8b636ee3908101905b818110611849575050565b805f600392555f60018201555f60028201550161183e565b61187060015460025490611601565b80421015611886576118839042906117b3565b90565b505f90565b5f5460081c6001600160a01b031633036118a157565b63118cdaa760e01b5f523360045260245ffd5b60ff5f54166118bf57565b63d93c066560e01b5f5260045ffd5b60ff5f5416156118da57565b638dfc202b60e01b5f5260045ffd5b60025f516020611d195f395f51905f5254146119125760025f516020611d195f395f51905f5255565b633ee5aeb560e01b5f5260045ffd5b916040519163a9059cbb60e01b5f5260018060a01b031660045260245260205f60448180865af19060015f5114821615611981575b604052156119615750565b635274afe760e01b5f9081526001600160a01b0391909116600452602490fd5b90600181151661199957823b15153d15161690611956565b503d5f823e3d90fd5b478015611a8057600654905f5b8281106119bb57505050565b6127106119d560016119cc84611540565b5001548461165d565b04806119e5575b506001016119af565b5f808080846119f387611540565b50546001600160a01b03165af1611a0861170d565b5015611a5657906001917f1445764fe3fdfc2a9812ff42e9b65c2e7896d5162851f78f7d4a5578f7346ff16020611a3e84611540565b50858060a01b0390541692604051908152a2906119dc565b611a5f82611540565b5054630e4c403160e11b5f9081526001600160a01b03909116600452602490fd5b50565b6007548015611a80576006545f5b828110611a9d57505050565b611aa681611570565b50546001600160a01b03166001611abc83611570565b500154611bdd576040516370a0823160e01b8152306004820152602081602481855afa9081156113d9575f91611bac575b505b80611aff575b5050600101611a91565b5f5b848110611b0e5750611af5565b80612710611b2a6001611b218195611540565b5001548561165d565b0480611b38575b5001611b01565b611b5581611b4584611540565b50858060a01b0390541687611921565b611b5e86611570565b50838060a01b039054167f9c8515990fd8c61431c4ac8db9b81475f90c292a1dda77731e56c22e64fc76436020611b9485611540565b50868060a01b0390541693604051908152a35f611b31565b90506020813d8211611bd5575b81611bc6602093836115e0565b8101031261028357515f611aed565b3d9150611bb9565b6001611be883611570565b500154611aef565b6008548015611a80575f5b818110611c06575050565b611c0f8161158c565b50546001600160a01b031690611c248161158c565b50600201546001600160a01b03166001611c3d8361158c565b500154833b156102835760645f92836040519687948593632142170760e11b8552306004860152602485015260448401525af19182156113d957600192611ce8575b50611c898161158c565b50828060a01b0390541682611c9d8361158c565b500154907fb7076e58f35e6669b2f089716c3fe1955d72ff0150ad8a5f90475c77fa43bf996020611ccd8561158c565b506002878060a01b039101541693604051908152a301611bfb565b5f611cf2916115e0565b5f611c7f56fe8a35acfbc15ff81a39ae7d344fd709f28e8600b4aa8c65c6b64bfe7fe36bd19b9b779b17422d0df92223018b32b4d1fa46e071723d6817e2486d003becc55f00a2646970667358221220a9fbb8aa3aac98a3d8b68db6427aad644d0b8059576dd864699b2e3a3a0e896064736f6c634300081c0033a2646970667358221220ac6cdc4df29354d84d4afde1949f9943fc12972450845dab36d52ce4c9b85b0d64736f6c634300081c0033",
  "linkReferences": {},
  "deployedLinkReferences": {},
  "immutableReferences": {},
  "inputSourceName": "project/contracts/ChainWillFactory.sol",
  "buildInfoId": "solc-0_8_28-541b9dcf5990564292ae6a383f962bcbf60f727f"
}