{
  "_format": "hh3-artifact-1",
  "contractName": "ChainWillFactory",
  "sourceName": "contracts/ChainWillFactory.sol",
  "abi": [
    {
      "inputs": [],
      "name": "NoWillFound",
      "type": "error"
    },
    {
      "inputs": [
        {
          "internalType": "address",
          "name": "existing",
          "type": "address"
        }
      ],
      "name": "WillAlreadyExists",
      "type": "error"
    },
    {
      "anonymous": false,
      "inputs": [
        {
          "indexed": true,
          "internalType": "address",
          "name": "owner",
          "type": "address"
        },
        {
          "indexed": true,
          "internalType": "address",
          "name": "will",
          "type": "address"
        },
        {
          "indexed": false,
          "internalType": "uint256",
          "name": "threshold",
          "type": "uint256"
        }
      ],
      "name": "WillCreated",
      "type": "event"
    },
    {
      "inputs": [
        {
          "internalType": "uint256",
          "name": "",
          "type": "uint256"
        }
      ],
      "name": "allWills",
      "outputs": [
        {
          "internalType": "address",
          "name": "",
          "type": "address"
        }
      ],
      "stateMutability": "view",
      "type": "function"
    },
    {
      "inputs": [
        {
          "internalType": "uint256",
          "name": "_inactivityThreshold",
          "type": "uint256"
        }
      ],
      "name": "createWill",
      "outputs": [
        {
          "internalType": "address",
          "name": "will",
          "type": "address"
        }
      ],
      "stateMutability": "nonpayable",
      "type": "function"
    },
    {
      "inputs": [
        {
          "internalType": "address",
          "name": "_owner",
          "type": "address"
        }
      ],
      "name": "getWill",
      "outputs": [
        {
          "internalType": "address",
          "name": "",
          "type": "address"
        }
      ],
      "stateMutability": "view",
      "type": "function"
    },
    {
      "inputs": [
        {
          "internalType": "address",
          "name": "_owner",
          "type": "address"
        }
      ],
      "name": "hasWill",
      "outputs": [
        {
          "internalType": "bool",
          "name": "",
          "type": "bool"
        }
      ],
      "stateMutability": "view",
      "type": "function"
    },
    {
      "inputs": [],
      "name": "totalWills",
      "outputs": [
        {
          "internalType": "uint256",
          "name": "",
          "type": "uint256"
        }
      ],
      "stateMutability": "view",
      "type": "function"
    },
    {
      "inputs": [
        {
          "internalType": "address",
          "name": "",
          "type": "address"
        }
      ],
      "name": "wills",
      "outputs": [
        {
          "internalType": "address",
          "name": "",
          "type": "address"
        }
      ],
      "stateMutability": "view",
      "type": "function"
    }
  ],
  "bytecode": "0x60808060405234601557611dfc908161001a8239f35b5f80fdfe6080806040526004361015610012575f80fd5b5f905f3560e01c9081632c0f864a146102d357508063549cc7b81461028e578063a4cb92fa1461024b578063ac4e6b021461024b578063ba5a24ed146102095763e2c5db5614610060575f80fd5b346101db5760203660031901126101db5760043590335f525f60205260018060a01b0360405f2054166101df57604051611aad8082019082821067ffffffffffffffff8311176101bc57602091839161031a83398581520301905ff080156101d0576001600160a01b031690813b156101db5760405163f2fde38b60e01b81523360048201525f8160248183875af180156101d0576101a1575b5033815260208190526040812080546001600160a01b03191683179055600154906801000000000000000082101561018d57506020926101418260018594016001556102ed565b81549060031b9084821b9160018060a01b03901b19161790556040519081527f1a65dda79fbe6a14f34584eb235a91d0dfc17413d5536edc87504264784a29c0843392a3604051908152f35b634e487b7160e01b81526041600452602490fd5b905067ffffffffffffffff81116101bc576040525f5f6100fa565b634e487b7160e01b5f52604160045260245ffd5b6040513d5f823e3d90fd5b5f80fd5b335f9081526020819052604081205463d3e6239d60e01b82526001600160a01b0316600452602490fd5b346101db5760203660031901126101db576004356001548110156101db576102326020916102ed565b905460405160039290921b1c6001600160a01b03168152f35b346101db5760203660031901126101db576004356001600160a01b038116908190036101db575f525f602052602060018060a01b0360405f205416604051908152f35b346101db5760203660031901126101db576004356001600160a01b038116908190036101db575f525f602052602060018060a01b0360405f2054161515604051908152f35b346101db575f3660031901126101db576020906001548152f35b6001548110156103055760015f5260205f2001905f90565b634e487b7160e01b5f52603260045260245ffdfe60803461010c57601f611aad38819003918201601f19168301916001600160401b038311848410176101105780849260209460405283398101031261010c575160017f9b779b17422d0df92223018b32b4d1fa46e071723d6817e2486d003becc55f005533156100f9575f8054610100600160a81b0319811633600881811b610100600160a81b03169290921784559291901c6001600160a01b0316907f8be0079c531659141344cd1fd0a4f28419497f9722a3daafe3b4186f6b6457e09080a362278d0081106100e0576002554260015560405161198890816101258239f35b631db0a39560e01b5f5260045262278d0060245260445ffd5b631e4fbdf760e01b5f525f60045260245ffd5b5f80fd5b634e487b7160e01b5f52604160045260245ffdfe608080604052600436101561001c575b50361561001a575f80fd5b005b5f3560e01c908163150b7a021461122457508063183ff085146111c85780631af03203146111095780632348dd18146110ee5780633b2786cb146110c25780633f4ba83a1461106e5780634585e33b14610f3a57806357583daf14610e155780635c657d9d14610bcd5780635c975abb14610bac5780636e04ff0d14610ae1578063715018a614610a8657806379d2055214610a6457806384536017146109ca5780638456cb591461097357806384d58a451461085b5780638da5cb5b146108305780638fc4c35e146107a7578063913b722c146106ce5780639ec86276146106b1578063bd11c4c014610694578063cf3abaf1146105bb578063d3a057c814610596578063d40d17bc14610523578063db78dabd14610506578063e1f1c4a7146104ea578063eeb0cf0314610312578063efeb5e58146102eb578063f2fde38b14610252578063f7087e0d14610206578063fa34a842146101e45763fa3908b114610188575f61000f565b346101e05760203660031901126101e0576004356006548110156101e0576101b160609161134c565b5080546001820154600290920154604080516001600160a01b0393841681526020810194909452911690820152f35b5f80fd5b346101e0575f3660031901126101e05760206101fe61149b565b604051908152f35b346101e05760203660031901126101e0576004356005548110156101e05761022d90611330565b508054600190910154604080516001600160a01b039093168352602083019190915290f35b346101e05760203660031901126101e05761026b611277565b6102736114c5565b6001600160a01b0381169081156102d8575f8054610100600160a81b03198116600893841b610100600160a81b031617825590911c6001600160a01b0316907f8be0079c531659141344cd1fd0a4f28419497f9722a3daafe3b4186f6b6457e09080a3005b631e4fbdf760e01b5f525f60045260245ffd5b346101e05760203660031901126101e0576004356004548110156101e05761022d90611300565b346101e05760203660031901126101e0576004356001600160401b0381116101e057366023820112156101e0578060040135906001600160401b0382116101e05736602460608402830101116101e05761036a6114c5565b60ff600354166104db5761037c6114ee565b6006545f6006558061044c575b505f5b8281101561001a5760608102820190600654600160401b811015610438578060016103ba920160065561134c565b610425576001926002906103ff906064906001600160a01b036103df602483016113bd565b86546001600160a01b0319169116178555604481013587860155016113bd565b910190838060a01b03166bffffffffffffffffffffffff60a01b8254161790550161038c565b634e487b7160e01b5f525f60045260245ffd5b634e487b7160e01b5f52604160045260245ffd5b806003029060038204036104c75760065f527ff652222313e28459528d920b65115c16c04f3efc82aaedc97be59f3f377c0d3f017ff652222313e28459528d920b65115c16c04f3efc82aaedc97be59f3f377c0d3f5b8181106104af5750610389565b805f600392555f60018201555f6002820155016104a2565b634e487b7160e01b5f52601160045260245ffd5b630dc1019760e01b5f5260045ffd5b346101e0575f3660031901126101e05760206040516127108152f35b346101e0575f3660031901126101e0576020600154604051908152f35b346101e05760203660031901126101e05761053c611277565b6105446114c5565b6003805462010000600160b01b031916601083901b62010000600160b01b03161790556001600160a01b03167f9d90a82ec1d038d4e13317a0eb136f9c65b7ed42156fc204ec4b7c4731e739505f80a2005b346101e0575f3660031901126101e057602060ff60035460081c166040519015158152f35b346101e0575f3660031901126101e0576005546105d781611396565b906105e56040519283611368565b80825260208201908160055f527f036b6384b5eca791c62761152d0c79bb0604c104a5fb6f4eb0703f3154bb3db05f915b838310610676578486604051918291602083019060208452518091526040830191905f5b818110610648575050500390f35b825180516001600160a01b03168552602090810151818601528695506040909401939092019160010161063a565b6002602060019261068685611464565b815201920192019190610616565b346101e0575f3660031901126101e057602060405162278d008152f35b346101e0575f3660031901126101e0576020600254604051908152f35b346101e0575f3660031901126101e0576004546106ea81611396565b906106f86040519283611368565b80825260208201908160045f527f8a35acfbc15ff81a39ae7d344fd709f28e8600b4aa8c65c6b64bfe7fe36bd19b5f915b838310610789578486604051918291602083019060208452518091526040830191905f5b81811061075b575050500390f35b825180516001600160a01b03168552602090810151818601528695506040909401939092019160010161074d565b6002602060019261079985611464565b815201920192019190610729565b346101e0575f3660031901126101e0576101006001546002546107ca8183611389565b42811161081f57505f915b6003549260ff5f54169247926004549460ff60405197818160081c16151589521615156020880152151560408701526060860152608085015260a084015260c083015260e0820152f35b61082a904290611457565b916107d5565b346101e0575f3660031901126101e0575f5460405160089190911c6001600160a01b03168152602090f35b346101e05760203660031901126101e0576004356001600160401b0381116101e05761088b9036906004016112d0565b6108936114c5565b60ff600354166104db576108a56114ee565b6005545f600555806108fa575b505f5b8181106108be57005b6108c98183856113ad565b90600554600160401b811015610438576001926108ee82856108f49401600555611330565b906113e4565b016108b5565b6001600160ff1b03811681036104c75760055f5260011b7f036b6384b5eca791c62761152d0c79bb0604c104a5fb6f4eb0703f3154bb3db0017f036b6384b5eca791c62761152d0c79bb0604c104a5fb6f4eb0703f3154bb3db05b81811061096257506108b2565b5f8082556001820155600201610955565b346101e0575f3660031901126101e05761098b6114c5565b6109936114ee565b600160ff195f5416175f557f62e78cea01bee320cd4e420270b5ea74000d11b0c9f74754ebdbfc544b05a2586020604051338152a1005b346101e0575f3660031901126101e0576109e26114c5565b6109ea611508565b6109f2611523565b5f8080804760018060a01b03825460081c165af1610a0e611419565b5015610a275760015f5160206119335f395f51905f5255005b60405162461bcd60e51b8152602060048201526015602482015274115512081dda5d1a191c985dd85b0819985a5b1959605a1b6044820152606490fd5b346101e0575f3660031901126101e057602060ff600354166040519015158152f35b346101e0575f3660031901126101e057610a9e6114c5565b5f8054610100600160a81b03198116825560081c6001600160a01b03167f8be0079c531659141344cd1fd0a4f28419497f9722a3daafe3b4186f6b6457e08280a3005b346101e05760203660031901126101e0576004356001600160401b0381116101e057610b119036906004016112a3565b505060035460ff8160081c169081610ba0575b5080610b94575b80610b7c575b606060405191610b42602084611368565b5f83526020604051938492151583526040828401528051918291826040860152018484015e5f828201840152601f01601f19168101030190f35b50610b8c60015460025490611389565b421015610b31565b5060ff5f541615610b2b565b60ff9150161581610b24565b346101e0575f3660031901126101e057602060ff5f54166040519015158152f35b346101e05760403660031901126101e0576004356001600160401b0381116101e057610bfd9036906004016112d0565b9060243590610c0a6114c5565b60ff600354166104db57610c1c6114ee565b62278d008210610dfb5782158015610df1575b610de2575f5f5b848110610d6c57506127108103610d5a57506004545f60045580610ce1575b505f5b838110610cab575050806002554260015561010061ff0019600354161760035560405191825260208201527fac95b217141d8564a02c1fd38364dfb57f347cc8b5e525495f37a779eb31e69e60403392a2005b610cb68185846113ad565b90600454600160401b811015610438576001926108ee8285610cdb9401600455611300565b01610c58565b6001600160ff1b03811681036104c75760045f5260011b7f8a35acfbc15ff81a39ae7d344fd709f28e8600b4aa8c65c6b64bfe7fe36bd19b017f8a35acfbc15ff81a39ae7d344fd709f28e8600b4aa8c65c6b64bfe7fe36bd19b5b818110610d495750610c55565b5f8082556001820155600201610d3c565b630cc329fd60e01b5f5260045260245ffd5b906001600160a01b03610d88610d838488876113ad565b6113bd565b1615610dd3576020610d9b8387866113ad565b013515610dc457610dbd6001916020610db58589886113ad565b013590611389565b9101610c36565b63ba0d87b560e01b5f5260045ffd5b63f8cc3de360e01b5f5260045ffd5b636849c3cf60e01b5f5260045ffd5b5060058311610c2f565b50631db0a39560e01b5f5260045262278d0060245260445ffd5b346101e0575f3660031901126101e057600654610e3181611396565b90610e3f6040519283611368565b80825260208201809160065f527ff652222313e28459528d920b65115c16c04f3efc82aaedc97be59f3f377c0d3f915f905b828210610ee3578486604051918291602083019060208452518091526040830191905f5b818110610ea3575050500390f35b825180516001600160a01b039081168652602082810151818801526040928301519091169186019190915286955060609094019390920191600101610e95565b604051606081018181106001600160401b0382111761043857600192600392602092604052848060a01b0388541681528488015483820152848060a01b036002890154166040820152815201940191019092610e71565b346101e05760203660031901126101e0576004356001600160401b0381116101e057610f6a9036906004016112a3565b5050610f74611523565b610f7c6114ee565b60035460ff8160081c161561105f5760ff81166104db57601081901c6001600160a01b03168015159081611054575b5061104157610fbf60015460025490611389565b42106110325760019060ff19161760035560018060a01b035f5460081c167fac8ae454ab5edd07d536a5c6584f39f829039f54889168e45278e74b7d062a3f6020604051428152a261100f6115dc565b6110176116bd565b61101f61182a565b60015f5160206119335f395f51905f5255005b631b7c609b60e11b5f5260045ffd5b633a60346160e11b5f523360045260245ffd5b905033141582610fab565b63d311bc3960e01b5f5260045ffd5b346101e0575f3660031901126101e0576110866114c5565b61108e611508565b60ff195f54165f557f5db9ee0a495bf2e6ff9c91a7834c1ba4fdd244a5e8aa4e537bd38aeae4b073aa6020604051338152a1005b346101e0575f3660031901126101e05760035460405160109190911c6001600160a01b03168152602090f35b346101e0575f3660031901126101e057602060405160058152f35b346101e05760203660031901126101e057611122611277565b61112a6114c5565b611132611508565b61113a611523565b6040516370a0823160e01b8152306004820152906001600160a01b0316602082602481845afa9081156111bd575f91611187575b5f5461101f935060081c6001600160a01b03169061155b565b90506020823d6020116111b5575b816111a260209383611368565b810103126101e05761101f91519061116e565b3d9150611195565b6040513d5f823e3d90fd5b346101e0575f3660031901126101e0576111e06114c5565b60ff600354166104db576111f26114ee565b426001556040514281527fdddb6e14f7f2101397a6526aab95e964de7f1f44ed06aa47a1c9a0e6b992445660203392a2005b346101e05760803660031901126101e05761123d611277565b5061124661128d565b50606435906001600160401b0382116101e05761126960209236906004016112a3565b5050630a85bd0160e11b8152f35b600435906001600160a01b03821682036101e057565b602435906001600160a01b03821682036101e057565b9181601f840112156101e0578235916001600160401b0383116101e057602083818601950101116101e057565b9181601f840112156101e0578235916001600160401b0383116101e0576020808501948460061b0101116101e057565b60045481101561131c5760045f5260205f209060011b01905f90565b634e487b7160e01b5f52603260045260245ffd5b60055481101561131c5760055f5260205f209060011b01905f90565b60065481101561131c5760065f52600360205f20910201905f90565b90601f801991011681019081106001600160401b0382111761043857604052565b919082018092116104c757565b6001600160401b0381116104385760051b60200190565b919081101561131c5760061b0190565b356001600160a01b03811681036101e05790565b818102929181159184041417156104c757565b9190610425576001906020906001600160a01b03611401826113bd565b85546001600160a01b03191691161784550135910155565b3d15611452573d906001600160401b0382116104385760405191611447601f8201601f191660200184611368565b82523d5f602084013e565b606090565b919082039182116104c757565b90604051604081018181106001600160401b038211176104385760405282546001600160a01b031681526001909201546020830152565b6114aa60015460025490611389565b804210156114c0576114bd904290611457565b90565b505f90565b5f5460081c6001600160a01b031633036114db57565b63118cdaa760e01b5f523360045260245ffd5b60ff5f54166114f957565b63d93c066560e01b5f5260045ffd5b60ff5f54161561151457565b638dfc202b60e01b5f5260045ffd5b60025f5160206119335f395f51905f52541461154c5760025f5160206119335f395f51905f5255565b633ee5aeb560e01b5f5260045ffd5b916040519163a9059cbb60e01b5f5260018060a01b031660045260245260205f60448180865af19060015f51148216156115bb575b6040521561159b5750565b635274afe760e01b5f9081526001600160a01b0391909116600452602490fd5b9060018115166115d357823b15153d15161690611590565b503d5f823e3d90fd5b4780156116ba57600454905f5b8281106115f557505050565b61271061160f600161160684611300565b500154846113d1565b048061161f575b506001016115e9565b5f8080808461162d87611300565b50546001600160a01b03165af1611642611419565b501561169057906001917f1445764fe3fdfc2a9812ff42e9b65c2e7896d5162851f78f7d4a5578f7346ff1602061167884611300565b50858060a01b0390541692604051908152a290611616565b61169982611300565b5054630e4c403160e11b5f9081526001600160a01b03909116600452602490fd5b50565b60055480156116ba576004545f5b8281106116d757505050565b6116e081611330565b50546001600160a01b031660016116f683611330565b500154611817576040516370a0823160e01b8152306004820152602081602481855afa9081156111bd575f916117e6575b505b80611739575b50506001016116cb565b5f5b848110611748575061172f565b80612710611764600161175b8195611300565b500154856113d1565b0480611772575b500161173b565b61178f8161177f84611300565b50858060a01b039054168761155b565b61179886611330565b50838060a01b039054167f9c8515990fd8c61431c4ac8db9b81475f90c292a1dda77731e56c22e64fc764360206117ce85611300565b50868060a01b0390541693604051908152a35f61176b565b90506020813d821161180f575b8161180060209383611368565b810103126101e057515f611727565b3d91506117f3565b600161182283611330565b500154611729565b60065480156116ba575f5b818110611840575050565b6118498161134c565b50546001600160a01b03169061185e8161134c565b50600201546001600160a01b031660016118778361134c565b500154833b156101e05760645f92836040519687948593632142170760e11b8552306004860152602485015260448401525af19182156111bd57600192611922575b506118c38161134c565b50828060a01b03905416826118d78361134c565b500154907fb7076e58f35e6669b2f089716c3fe1955d72ff0150ad8a5f90475c77fa43bf9960206119078561134c565b506002878060a01b039101541693604051908152a301611835565b5f61192c91611368565b5f6118b956fe9b779b17422d0df92223018b32b4d1fa46e071723d6817e2486d003becc55f00a2646970667358221220485cc61e03c5d497573286049c9db17a6fdeb4574d3af30888a652b0724f411864736f6c634300081c0033a2646970667358221220605c3dd2bd8782f1073668cb9bf0c9c8be1b8e6bf8d8e871c34b549809c5e3d664736f6c634300081c0033",
  "linkReferences": {},
  "deployedLinkReferences": {},
  "immutableReferences": {},
  "inputSourceName": "project/contracts/ChainWillFactory.sol",
  "buildInfoId": "solc-0_8_28-0c099910a634aa1e3291ce837a93c329df41c390"
}