{
  "_format": "hh3-artifact-1",
  "contractName": "ChainWillFactory",
  "sourceName": "contracts/ChainWillFactory.sol",
  "abi": [
    {
      "inputs": [],
      "name": "NoWillFound",
      "type": "error"
    },
    {
      "inputs": [
        {
          "internalType": "address",
          "name": "existing",
          "type": "address"
        }
      ],
      "name": "WillAlreadyExists",
      "type": "error"
    },
    {
      "anonymous": false,
      "inputs": [
        {
          "indexed": true,
          "internalType": "address",
          "name": "owner",
          "type": "address"
        },
        {
          "indexed": true,
          "internalType": "address",
          "name": "will",
          "type": "address"
        },
        {
          "indexed": false,
          "internalType": "uint256",
          "name": "threshold",
          "type": "uint256"
        }
      ],
      "name": "WillCreated",
      "type": "event"
    },
    {
      "inputs": [
        {
          "internalType": "uint256",
          "name": "",
          "type": "uint256"
        }
      ],
      "name": "allWills",
      "outputs": [
        {
          "internalType": "address",
          "name": "",
          "type": "address"
        }
      ],
      "stateMutability": "view",
      "type": "function"
    },
    {
      "inputs": [
        {
          "internalType": "uint256",
          "name": "_inactivityThreshold",
          "type": "uint256"
        }
      ],
      "name": "createWill",
      "outputs": [
        {
          "internalType": "address",
          "name": "will",
          "type": "address"
        }
      ],
      "stateMutability": "nonpayable",
      "type": "function"
    },
    {
      "inputs": [],
      "name": "deleteWill",
      "outputs": [],
      "stateMutability": "nonpayable",
      "type": "function"
    },
    {
      "inputs": [
        {
          "internalType": "address",
          "name": "_owner",
          "type": "address"
        }
      ],
      "name": "getWill",
      "outputs": [
        {
          "internalType": "address",
          "name": "",
          "type": "address"
        }
      ],
      "stateMutability": "view",
      "type": "function"
    },
    {
      "inputs": [
        {
          "internalType": "address",
          "name": "_owner",
          "type": "address"
        }
      ],
      "name": "hasWill",
      "outputs": [
        {
          "internalType": "bool",
          "name": "",
          "type": "bool"
        }
      ],
      "stateMutability": "view",
      "type": "function"
    },
    {
      "inputs": [],
      "name": "totalWills",
      "outputs": [
        {
          "internalType": "uint256",
          "name": "",
          "type": "uint256"
        }
      ],
      "stateMutability": "view",
      "type": "function"
    },
    {
      "inputs": [
        {
          "internalType": "address",
          "name": "",
          "type": "address"
        }
      ],
      "name": "wills",
      "outputs": [
        {
          "internalType": "address",
          "name": "",
          "type": "address"
        }
      ],
      "stateMutability": "view",
      "type": "function"
    }
  ],
  "bytecode": "0x60808060405234601557611ec7908161001a8239f35b5f80fdfe60806040526004361015610011575f80fd5b5f5f3560e01c8063210879f4146102f75780632c0f864a146102da578063549cc7b814610295578063a4cb92fa14610252578063ac4e6b0214610252578063ba5a24ed146102105763e2c5db5614610067575f80fd5b346101e25760203660031901126101e25760043590335f525f60205260018060a01b0360405f2054166101e657604051611b148082019082821067ffffffffffffffff8311176101c357602091839161037e83398581520301905ff080156101d7576001600160a01b031690813b156101e25760405163f2fde38b60e01b81523360048201525f8160248183875af180156101d7576101a8575b5033815260208190526040812080546001600160a01b0319168317905560015490680100000000000000008210156101945750602092610148826001859401600155610351565b81549060031b9084821b9160018060a01b03901b19161790556040519081527f1a65dda79fbe6a14f34584eb235a91d0dfc17413d5536edc87504264784a29c0843392a3604051908152f35b634e487b7160e01b81526041600452602490fd5b905067ffffffffffffffff81116101c3576040525f5f610101565b634e487b7160e01b5f52604160045260245ffd5b6040513d5f823e3d90fd5b5f80fd5b335f9081526020819052604081205463d3e6239d60e01b82526001600160a01b0316600452602490fd5b346101e25760203660031901126101e2576004356001548110156101e257610239602091610351565b905460405160039290921b1c6001600160a01b03168152f35b346101e25760203660031901126101e2576004356001600160a01b038116908190036101e2575f525f602052602060018060a01b0360405f205416604051908152f35b346101e25760203660031901126101e2576004356001600160a01b038116908190036101e2575f525f602052602060018060a01b0360405f2054161515604051908152f35b346101e2575f3660031901126101e2576020600154604051908152f35b346101e2575f3660031901126101e257335f908152602081905260409020546001600160a01b03161561034257335f90815260208190526040902080546001600160a01b0319169055005b636ad63f7960e01b5f5260045ffd5b6001548110156103695760015f5260205f2001905f90565b634e487b7160e01b5f52603260045260245ffdfe60803461010c57601f611b1438819003918201601f19168301916001600160401b038311848410176101105780849260209460405283398101031261010c575160017f9b779b17422d0df92223018b32b4d1fa46e071723d6817e2486d003becc55f005533156100f9575f8054610100600160a81b0319811633600881811b610100600160a81b03169290921784559291901c6001600160a01b0316907f8be0079c531659141344cd1fd0a4f28419497f9722a3daafe3b4186f6b6457e09080a362278d0081106100e057600255426001556040516119ef90816101258239f35b631db0a39560e01b5f5260045262278d0060245260445ffd5b631e4fbdf760e01b5f525f60045260245ffd5b5f80fd5b634e487b7160e01b5f52604160045260245ffdfe608080604052600436101561001c575b50361561001a575f80fd5b005b5f3560e01c908163150b7a021461113d57508063183ff085146110e15780631af03203146110225780632348dd18146110075780633b2786cb14610fdb5780633f4ba83a14610f875780634585e33b14610e5357806357583daf14610d2e5780635c657d9d14610b655780635c975abb14610b445780636e04ff0d14610a79578063715018a614610a1e57806379d20552146109fc57806384536017146109625780638456cb591461090b57806384d58a45146108725780638da5cb5b146108475780638fc4c35e146107be578063913b722c146106e55780639ec86276146106c8578063bd11c4c0146106ab578063cf3abaf1146105d2578063d3a057c8146105ad578063d40d17bc1461053a578063d5a4f9ed14610499578063db78dabd1461047c578063e1f1c4a714610460578063eeb0cf031461031d578063efeb5e58146102f6578063f2fde38b1461025d578063f7087e0d14610211578063fa34a842146101ef5763fa3908b114610193575f61000f565b346101eb5760203660031901126101eb576004356006548110156101eb576101bc606091611265565b5080546001820154600290920154604080516001600160a01b0393841681526020810194909452911690820152f35b5f80fd5b346101eb575f3660031901126101eb576020610209611502565b604051908152f35b346101eb5760203660031901126101eb576004356005548110156101eb5761023890611249565b508054600190910154604080516001600160a01b039093168352602083019190915290f35b346101eb5760203660031901126101eb57610276611190565b61027e61152c565b6001600160a01b0381169081156102e3575f8054610100600160a81b03198116600893841b610100600160a81b031617825590911c6001600160a01b0316907f8be0079c531659141344cd1fd0a4f28419497f9722a3daafe3b4186f6b6457e09080a3005b631e4fbdf760e01b5f525f60045260245ffd5b346101eb5760203660031901126101eb576004356004548110156101eb5761023890611219565b346101eb5760203660031901126101eb576004356001600160401b0381116101eb57366023820112156101eb578060040135906001600160401b0382116101eb5736602460608402830101116101eb5761037561152c565b60ff6003541661045157610387611555565b61038f611498565b5f5b8281101561001a5760608102820190600654600160401b81101561043d578060016103bf9201600655611265565b61042a57600192600290610404906064906001600160a01b036103e4602483016112ea565b86546001600160a01b0319169116178555604481013587860155016112ea565b910190838060a01b03166bffffffffffffffffffffffff60a01b82541617905501610391565b634e487b7160e01b5f525f60045260245ffd5b634e487b7160e01b5f52604160045260245ffd5b630dc1019760e01b5f5260045ffd5b346101eb575f3660031901126101eb5760206040516127108152f35b346101eb575f3660031901126101eb576020600154604051908152f35b346101eb575f3660031901126101eb576104b161152c565b6104b961156f565b6104c161158a565b60ff60035416610451576104d3611311565b6104db6113ec565b6104e3611498565b61ff00196003541660035542600155600254604051905f825260208201527fac95b217141d8564a02c1fd38364dfb57f347cc8b5e525495f37a779eb31e69e60403392a260015f51602061199a5f395f51905f5255005b346101eb5760203660031901126101eb57610553611190565b61055b61152c565b6003805462010000600160b01b031916601083901b62010000600160b01b03161790556001600160a01b03167f9d90a82ec1d038d4e13317a0eb136f9c65b7ed42156fc204ec4b7c4731e739505f80a2005b346101eb575f3660031901126101eb57602060ff60035460081c166040519015158152f35b346101eb575f3660031901126101eb576005546105ee816112c3565b906105fc6040519283611281565b80825260208201908160055f527f036b6384b5eca791c62761152d0c79bb0604c104a5fb6f4eb0703f3154bb3db05f915b83831061068d578486604051918291602083019060208452518091526040830191905f5b81811061065f575050500390f35b825180516001600160a01b031685526020908101518186015286955060409094019390920191600101610651565b6002602060019261069d85611461565b81520192019201919061062d565b346101eb575f3660031901126101eb57602060405162278d008152f35b346101eb575f3660031901126101eb576020600254604051908152f35b346101eb575f3660031901126101eb57600454610701816112c3565b9061070f6040519283611281565b80825260208201908160045f527f8a35acfbc15ff81a39ae7d344fd709f28e8600b4aa8c65c6b64bfe7fe36bd19b5f915b8383106107a0578486604051918291602083019060208452518091526040830191905f5b818110610772575050500390f35b825180516001600160a01b031685526020908101518186015286955060409094019390920191600101610764565b600260206001926107b085611461565b815201920192019190610740565b346101eb575f3660031901126101eb576101006001546002546107e181836112a2565b42811161083657505f915b6003549260ff5f54169247926004549460ff60405197818160081c16151589521615156020880152151560408701526060860152608085015260a084015260c083015260e0820152f35b610841904290611454565b916107ec565b346101eb575f3660031901126101eb575f5460405160089190911c6001600160a01b03168152602090f35b346101eb5760203660031901126101eb576004356001600160401b0381116101eb576108a29036906004016111e9565b6108aa61152c565b60ff60035416610451576108bc611555565b6108c46113ec565b5f5b8181106108cf57005b6108da8183856112da565b90600554600160401b81101561043d576001926108ff82856109059401600555611249565b90611379565b016108c6565b346101eb575f3660031901126101eb5761092361152c565b61092b611555565b600160ff195f5416175f557f62e78cea01bee320cd4e420270b5ea74000d11b0c9f74754ebdbfc544b05a2586020604051338152a1005b346101eb575f3660031901126101eb5761097a61152c565b61098261156f565b61098a61158a565b5f8080804760018060a01b03825460081c165af16109a66113ae565b50156109bf5760015f51602061199a5f395f51905f5255005b60405162461bcd60e51b8152602060048201526015602482015274115512081dda5d1a191c985dd85b0819985a5b1959605a1b6044820152606490fd5b346101eb575f3660031901126101eb57602060ff600354166040519015158152f35b346101eb575f3660031901126101eb57610a3661152c565b5f8054610100600160a81b03198116825560081c6001600160a01b03167f8be0079c531659141344cd1fd0a4f28419497f9722a3daafe3b4186f6b6457e08280a3005b346101eb5760203660031901126101eb576004356001600160401b0381116101eb57610aa99036906004016111bc565b505060035460ff8160081c169081610b38575b5080610b2c575b80610b14575b606060405191610ada602084611281565b5f83526020604051938492151583526040828401528051918291826040860152018484015e5f828201840152601f01601f19168101030190f35b50610b24600154600254906112a2565b421015610ac9565b5060ff5f541615610ac3565b60ff9150161581610abc565b346101eb575f3660031901126101eb57602060ff5f54166040519015158152f35b346101eb5760403660031901126101eb576004356001600160401b0381116101eb57610b959036906004016111e9565b9060243590610ba261152c565b60ff6003541661045157610bb4611555565b62278d008210610d145782158015610d0a575b610cfb575f5f5b848110610c8557506127108103610c735750610be8611311565b5f5b838110610c3d575050806002554260015561010061ff0019600354161760035560405191825260208201527fac95b217141d8564a02c1fd38364dfb57f347cc8b5e525495f37a779eb31e69e60403392a2005b610c488185846112da565b90600454600160401b81101561043d576001926108ff8285610c6d9401600455611219565b01610bea565b630cc329fd60e01b5f5260045260245ffd5b906001600160a01b03610ca1610c9c8488876112da565b6112ea565b1615610cec576020610cb48387866112da565b013515610cdd57610cd66001916020610cce8589886112da565b0135906112a2565b9101610bce565b63ba0d87b560e01b5f5260045ffd5b63f8cc3de360e01b5f5260045ffd5b636849c3cf60e01b5f5260045ffd5b5060058311610bc7565b50631db0a39560e01b5f5260045262278d0060245260445ffd5b346101eb575f3660031901126101eb57600654610d4a816112c3565b90610d586040519283611281565b80825260208201809160065f527ff652222313e28459528d920b65115c16c04f3efc82aaedc97be59f3f377c0d3f915f905b828210610dfc578486604051918291602083019060208452518091526040830191905f5b818110610dbc575050500390f35b825180516001600160a01b039081168652602082810151818801526040928301519091169186019190915286955060609094019390920191600101610dae565b604051606081018181106001600160401b0382111761043d57600192600392602092604052848060a01b0388541681528488015483820152848060a01b036002890154166040820152815201940191019092610d8a565b346101eb5760203660031901126101eb576004356001600160401b0381116101eb57610e839036906004016111bc565b5050610e8d61158a565b610e95611555565b60035460ff8160081c1615610f785760ff811661045157601081901c6001600160a01b03168015159081610f6d575b50610f5a57610ed8600154600254906112a2565b4210610f4b5760019060ff19161760035560018060a01b035f5460081c167fac8ae454ab5edd07d536a5c6584f39f829039f54889168e45278e74b7d062a3f6020604051428152a2610f28611643565b610f30611724565b610f38611891565b60015f51602061199a5f395f51905f5255005b631b7c609b60e11b5f5260045ffd5b633a60346160e11b5f523360045260245ffd5b905033141582610ec4565b63d311bc3960e01b5f5260045ffd5b346101eb575f3660031901126101eb57610f9f61152c565b610fa761156f565b60ff195f54165f557f5db9ee0a495bf2e6ff9c91a7834c1ba4fdd244a5e8aa4e537bd38aeae4b073aa6020604051338152a1005b346101eb575f3660031901126101eb5760035460405160109190911c6001600160a01b03168152602090f35b346101eb575f3660031901126101eb57602060405160058152f35b346101eb5760203660031901126101eb5761103b611190565b61104361152c565b61104b61156f565b61105361158a565b6040516370a0823160e01b8152306004820152906001600160a01b0316602082602481845afa9081156110d6575f916110a0575b5f54610f38935060081c6001600160a01b0316906115c2565b90506020823d6020116110ce575b816110bb60209383611281565b810103126101eb57610f38915190611087565b3d91506110ae565b6040513d5f823e3d90fd5b346101eb575f3660031901126101eb576110f961152c565b60ff600354166104515761110b611555565b426001556040514281527fdddb6e14f7f2101397a6526aab95e964de7f1f44ed06aa47a1c9a0e6b992445660203392a2005b346101eb5760803660031901126101eb57611156611190565b5061115f6111a6565b50606435906001600160401b0382116101eb5761118260209236906004016111bc565b5050630a85bd0160e11b8152f35b600435906001600160a01b03821682036101eb57565b602435906001600160a01b03821682036101eb57565b9181601f840112156101eb578235916001600160401b0383116101eb57602083818601950101116101eb57565b9181601f840112156101eb578235916001600160401b0383116101eb576020808501948460061b0101116101eb57565b6004548110156112355760045f5260205f209060011b01905f90565b634e487b7160e01b5f52603260045260245ffd5b6005548110156112355760055f5260205f209060011b01905f90565b6006548110156112355760065f52600360205f20910201905f90565b90601f801991011681019081106001600160401b0382111761043d57604052565b919082018092116112af57565b634e487b7160e01b5f52601160045260245ffd5b6001600160401b03811161043d5760051b60200190565b91908110156112355760061b0190565b356001600160a01b03811681036101eb5790565b818102929181159184041417156112af57565b6004545f600455806113205750565b6001600160ff1b03811681036112af5760045f5260011b7f8a35acfbc15ff81a39ae7d344fd709f28e8600b4aa8c65c6b64bfe7fe36bd19b908101905b818110611368575050565b5f808255600182015560020161135d565b919061042a576001906020906001600160a01b03611396826112ea565b85546001600160a01b03191691161784550135910155565b3d156113e7573d906001600160401b03821161043d57604051916113dc601f8201601f191660200184611281565b82523d5f602084013e565b606090565b6005545f600555806113fb5750565b6001600160ff1b03811681036112af5760055f5260011b7f036b6384b5eca791c62761152d0c79bb0604c104a5fb6f4eb0703f3154bb3db0908101905b818110611443575050565b5f8082556001820155600201611438565b919082039182116112af57565b90604051604081018181106001600160401b0382111761043d5760405282546001600160a01b031681526001909201546020830152565b6006545f600655806114a75750565b806003029060038204036112af5760065f527ff652222313e28459528d920b65115c16c04f3efc82aaedc97be59f3f377c0d3f908101905b8181106114ea575050565b805f600392555f60018201555f6002820155016114df565b611511600154600254906112a2565b8042101561152757611524904290611454565b90565b505f90565b5f5460081c6001600160a01b0316330361154257565b63118cdaa760e01b5f523360045260245ffd5b60ff5f541661156057565b63d93c066560e01b5f5260045ffd5b60ff5f54161561157b57565b638dfc202b60e01b5f5260045ffd5b60025f51602061199a5f395f51905f5254146115b35760025f51602061199a5f395f51905f5255565b633ee5aeb560e01b5f5260045ffd5b916040519163a9059cbb60e01b5f5260018060a01b031660045260245260205f60448180865af19060015f5114821615611622575b604052156116025750565b635274afe760e01b5f9081526001600160a01b0391909116600452602490fd5b90600181151661163a57823b15153d151616906115f7565b503d5f823e3d90fd5b47801561172157600454905f5b82811061165c57505050565b612710611676600161166d84611219565b500154846112fe565b0480611686575b50600101611650565b5f8080808461169487611219565b50546001600160a01b03165af16116a96113ae565b50156116f757906001917f1445764fe3fdfc2a9812ff42e9b65c2e7896d5162851f78f7d4a5578f7346ff160206116df84611219565b50858060a01b0390541692604051908152a29061167d565b61170082611219565b5054630e4c403160e11b5f9081526001600160a01b03909116600452602490fd5b50565b6005548015611721576004545f5b82811061173e57505050565b61174781611249565b50546001600160a01b0316600161175d83611249565b50015461187e576040516370a0823160e01b8152306004820152602081602481855afa9081156110d6575f9161184d575b505b806117a0575b5050600101611732565b5f5b8481106117af5750611796565b806127106117cb60016117c28195611219565b500154856112fe565b04806117d9575b50016117a2565b6117f6816117e684611219565b50858060a01b03905416876115c2565b6117ff86611249565b50838060a01b039054167f9c8515990fd8c61431c4ac8db9b81475f90c292a1dda77731e56c22e64fc7643602061183585611219565b50868060a01b0390541693604051908152a35f6117d2565b90506020813d8211611876575b8161186760209383611281565b810103126101eb57515f61178e565b3d915061185a565b600161188983611249565b500154611790565b6006548015611721575f5b8181106118a7575050565b6118b081611265565b50546001600160a01b0316906118c581611265565b50600201546001600160a01b031660016118de83611265565b500154833b156101eb5760645f92836040519687948593632142170760e11b8552306004860152602485015260448401525af19182156110d657600192611989575b5061192a81611265565b50828060a01b039054168261193e83611265565b500154907fb7076e58f35e6669b2f089716c3fe1955d72ff0150ad8a5f90475c77fa43bf99602061196e85611265565b506002878060a01b039101541693604051908152a30161189c565b5f61199391611281565b5f61192056fe9b779b17422d0df92223018b32b4d1fa46e071723d6817e2486d003becc55f00a264697066735822122087ea1552f8bd50d354db40ba511bc6748a27cf5e34d9adbcec775c45024cfb6664736f6c634300081c0033a264697066735822122085a76fa52fb999ec00fb5dfa2684a3fbb2ab112e5e7140fcea11a720b24550e064736f6c634300081c0033",
  "linkReferences": {},
  "deployedLinkReferences": {},
  "immutableReferences": {},
  "inputSourceName": "project/contracts/ChainWillFactory.sol",
  "buildInfoId": "solc-0_8_28-d3dfdbc3da56e880e14dc0219985012e81ca31e8"
}